:10000000C6C1EAC1E9C1E8C1E7C1E6C1E5C1E4C1D1
:10001000E3C1BCCAE1C1F7C928CADEC1DDC1DCC188
:10002000DBC1DAC1D9C10000011902321AC603DFEF
:1000300033EE1B68C74B0464E00E348DEF811CC1A6
:1000400069F8C8084C71058A652FE1240F213593A2
:100050008EDAF01282451DB5C27D6A27F9B9C99AB8
:1000600009784DE472A606BF8B6266DD30FDE2982A
:1000700025B31091228836D094CE8F96DBBDF1D275
:10008000135C833846401E42B6A3C3487E6E6B3A6B
:100090002854FA85BA3DCA5E9B9F0A15792B4ED427
:1000A000E5AC73F3A7570770C0F78C80630D674A00
:1000B000DEED31C5FE18E3A5997726B8B47C11446E
:1000C00092D92320892E373FD15B95BCCFCD908725
:1000D00097B2DCFCBE61F256D3AB142A5D9E843C21
:1000E0003953476D41A21F2D43D8B77BA476C4175F
:1000F00049EC7F0C6FF66CA13B52299D55AAFB6021
:1001000086B1BBCC3E5ACB595FB09CA9A0510BF530
:1001100016EB7A752CD74FAED5E9E6E7ADE874D685
:10012000F4EAA85058AF01020408102040801D3A9C
:1001300074E8CD8713264C982D5AB475EAC98F03FD
:10014000060C183060C09D274E9C254A94356AD411
:10015000B577EEC19F23468C050A142850A05DBADE
:1001600069D2B96FDEA15FBE61C2992F5EBC65CA5C
:10017000890F1E3C78F0FDE7D3BB6BD6B17FFEE163
:10018000DFA35BB671E2D9AF4386112244880D1A12
:100190003468D0BD67CE811F3E7CF8EDC7933B76B7
:1001A000ECC5973366CC85172E5CB86DDAA94F9EE7
:1001B000214284152A54A84D9A2952A455AA49923D
:1001C0003972E4D5B773E6D1BF63C6913F7EFCE5D3
:1001D000D7B37BF6F1FFE3DBAB4B963162C49537C7
:1001E0006EDCA557AE4182193264C88D070E1C38EB
:1001F00070E0DDA753A651A259B279F2F9EFC39B83
:100200002B56AC458A09122448903D7AF4F5F7F351
:10021000FBEBCB8B0B162C58B07DFAE9CF831B364A
:100220006CD8AD478E01020408102040801D3A743E
:10023000E8CD8713264C982D5AB475EAC98F03066A
:100240000C183060C09D274E9C254A94356AD4B561
:1002500077EEC19F23468C050A142850A05DBA6929
:10026000D2B96FDEA15FBE61C2992F5EBC65CA893B
:100270000F1E3C78F0FDE7D3BB6BD6B17FFEE1DF0C
:10028000A35BB671E2D9AF4386112244880D1A34BC
:1002900068D0BD67CE811F3E7CF8EDC7933B76ECFE
:1002A000C5973366CC85172E5CB86DDAA94F9E21B1
:1002B0004284152A54A84D9A2952A455AA49923924
:1002C00072E4D5B773E6D1BF63C6913F7EFCE5D734
:1002D000B37BF6F1FFE3DBAB4B963162C495376E2F
:1002E000DCA557AE4182193264C88D070E1C3870E8
:1002F000E0DDA753A651A259B279F2F9EFC39B2BC7
:1003000056AC458A09122448903D7AF4F5F7F3FB80
:10031000EBCB8B0B162C58B07DFAE9CF831B366CD8
:10032000D8AD478E0102000000000000000000046C
:1003300005070000000000000000000000010204AA
:100340000810204080010204081020010204081057
:100350002040804004040404040404040202020255
:10036000020203030303030302020300000000363A
:10037000003300300000000000380035003200007B
:10038000000000370034003100007007630A1124B8
:100390001FBECFE5D4E0DEBFCDBF10E0A0E6B0E0E9
:1003A000E8E8FBE102C005900D92A038B107D9F74B
:1003B00022E0A0E8B0E001C01D92A636B207E1F746
:1003C00011E0C7ECD1E003C02197FE01B5DBC53CCD
:1003D000D107D1F7D1D8D6CB13CEDC011596ED914C
:1003E000FC91309729F0208131812115310509F4E4
:1003F000B5DBFC0183819481820F931F0895CF9315
:10040000DF93EC01EADF4A8150E070E060E0DF91C9
:10041000CF91B1CBAF92BF92CF92DF92EF92FF928A
:100420000F931F93CF93DF93EC018B01B42EA22E79
:10043000672B59F0E42EF12C8A8190E0C22ED12C4A
:100440008C199D098E159F050CF488DBCE01C5DF44
:10045000A701B8018C0D9D1D85DBBA0CB882DF9118
:10046000CF911F910F91FF90EF90DF90CF90BF90B1
:10047000AF900895CF93C62FFC012281621708F038
:100480006DDBABDF8C0F911DCF910895BF92CF92A2
:10049000DF92EF92FF920F931F93CF93DF93EC01C4
:1004A0008B017A01DB014C914150D880D40EF701C9
:1004B000D082C70192DF4D2D50E070E060E05BDB41
:1004C000C12CD8018C91C81698F5B12C8881B8162A
:1004D00068F56C2DC801CEDFFC01D0806B2DCE01FC
:1004E000C9DFDC01EC91F0E03097F1F02D2D30E028
:1004F00021153105C9F0EA5DFF4F8491F901EA5DEC
:10050000FF4FE491282F2E0F3327331FF901EA5DA7
:10051000FE4FD4906C2D6B0DC701ACDFDC01EC916C
:10052000ED25EC93B394D2CFD12CF4CFC394C9CFA3
:10053000DF91CF911F910F91FF90EF90DF90CF90BF
:10054000BF9008951F93CF93DF93C091AE01D0E089
:10055000FE01E959FF4F108160E0812F13D9CF5977
:10056000DF4FC88160E08C2F0DD98C2F74D9C82F34
:10057000812FE2D89C0195E09093AA0191E021306F
:1005800041E0340708F490E09093AD01C093AE01D0
:100590003093AF018093B001DF91CF911F91089507
:1005A0001F93CF93DF93C82FD62F122F4230C9F05D
:1005B000433019F1413049F490E0662379F08959CC
:1005C0009F4FFC01808160E0DDD8113011F188F18E
:1005D0001230E1F1DF91CF911F9108958F599F4F14
:1005E000F0CF90E0662331F089599F4FFC01808164
:1005F00062E0EACF8F599F4FF9CF90E0662331F048
:1006000089599F4FFC01808161E0DECF8F599F4F58
:10061000F9CF8C2F90E0DD2349F089599F4FFC01E1
:10062000808161E0DF91CF911F91E8C88F599F4F82
:10063000F6CF8C2F90E0DD2331F089599F4FFC01DC
:10064000808160E0EFCF8F599F4FF9CF8C2F90E0E2
:10065000DD2361F089599F4FFC01C0818C2FFBD8AD
:1006600061E0892B09F060E08C2FDCCF8F599F4F20
:10067000F3CFECEAF1E0258144816381828190CF60
:10068000ECEAF1E04281842F90E0880F991FDC01B1
:10069000AC5FBE4F238134813227232732272D932D
:1006A0003C9384519F4F258136813227232732275F
:1006B000FC01318320831092E8001092E90010922F
:1006C000EA001092EB0081E090E0A0E0B0E004C00E
:1006D000880F991FAA1FBB1F4A95D2F720911001BE
:1006E000822B8093100108959F92AF92BF92CF9278
:1006F000DF92EF92FF920F931F93CF93DF9390D7E8
:100700000091E4001091E5002091E6003091E700AF
:10071000601B710B820B930B68327105810591058B
:1007200008F45CC07DD76093E4007093E50080938B
:10073000E6009093E70081E6E82E80E0F82EC8EF0F
:10074000D0E09CEEC92E90E0D92E24E0A22E21E02C
:10075000B22E10E000E08091100190E0002E02C067
:10076000959587950A94E2F780FF38C0F60141918C
:1007700051916F01F501819191915F0141155105F1
:1007800019F4998388830CC0288139812817390787
:1007900088F5240F351F8217930798F33983288330
:1007A000F70191907F0161E0892DECD761E0892DFF
:1007B00025D8899199919CD760E0892D1FD830D791
:1007C0006093E8007093E9008093EA009093EB0057
:1007D0000F5F1F4F0630110509F0BDCFDF91CF919C
:1007E0001F910F91FF90EF90DF90CF90BF90AF904F
:1007F0009F900895241B350B2817390710F2CECF90
:10080000EF92FF920F931F93CF93DF93CCEAD1E047
:100810000A812B81E02EF12C81E090E0A0E0B0E095
:10082000002E04C0880F991FAA1FBB1F0A94D2F77D
:100830003091E300832B8093E300F701E352FF4FF5
:100840002083F701E959FF4F808105D8182FF70160
:10085000EF59FF4F8081FFD794E09093AA01110FC9
:10086000182B1983802F68D79A83802F65D78B83A5
:10087000DF91CF911F910F91FF90EF900895CF934B
:10088000DF93ACEAB1E012962C911297E22FF0E0E0
:10089000EE0FFF1FEF01C853DF4F13968D919C9110
:1008A000149798278927982799838883EF01C45440
:1008B000DF4F15968D919C91169798278927982739
:1008C0009983888341E050E060E070E004C0440F09
:1008D000551F661F771F2A95D2F78091D600842B6B
:1008E0008093D600EC55FF4F808111968C93119721
:1008F000818112968C931082118283E08093AA01E9
:10090000DF91CF9108952F923F924F925F926F9215
:100910007F928F929F92AF92BF92CF92DF92EF928F
:10092000FF920F931F93CF93DF93CDB7DEB72A9734
:100930000FB6F894DEBF0FBECDBF9CE8C92E90E085
:10094000D92E2CEB30E03A83298340EB50E05A87D4
:10095000498781E690E09E838D83E7E6F0E0FC83A3
:10096000EB8324EAE22E20E0F22E10E000E0212CBE
:10097000312C2101239454D6702EF6018190919050
:10098000A190B1906F01E981FA8121913191FA83AF
:10099000E983AB01BC01481959096A097B09C901FE
:1009A000B0E0A0E084179507A607B707A8F4E9858B
:1009B000FA858081F7018083E985FA858181F701D5
:1009C0008183E985FA85108211822AD6F60134974F
:1009D00060837183828393838091D60090E0072C9B
:1009E00002C0959587950A94E2F780FF98C0ED8143
:1009F000FE81B190FE83ED8360E08B2DC3D6EB8149
:100A0000FC819190FC83EB8360E0892DBBD68B2D1C
:100A100022D75C01682E892D8FD64C019501332792
:100A200038872F83AA24A394B12C3BE0831691042A
:100A300010F4B12CA12C8091D50090E0072C02C0BD
:100A4000959587950A94E2F7817099274F8158858B
:100A50008417950779F48091D40090E0072C02C0A8
:100A6000959587950A94E2F7817099278A159B05D9
:100A700009F446C0D5D5F60134976083718382832B
:100A800093832091D500822F90E0072C02C095958A
:100A900087950A94E2F781709927EF81F8858E1780
:100AA0009F0729F0E985FA8581818F5F81833091E5
:100AB000D400832F90E0072C02C0959587950A9467
:100AC000E2F7817099278A159B0529F0E985FA8557
:100AD00080818F5F8083D201C10104C0880F991F7C
:100AE000AA1FBB1F7A94D2F7662091F1282B20937E
:100AF000D500FBE08F16910478F1382B3093D400A9
:100B00000F5F1F4F29853A852E5F3F4F3A87298710
:100B100032E0E30EF11C0630110509F02CCF2A96C5
:100B20000FB6F894DEBF0FBECDBFDF91CF911F91FE
:100B30000F91FF90EF90DF90CF90BF90AF909F907C
:100B40008F907F906F905F904F903F902F9008957F
:100B5000482F40952423CBCF80953823CFCF8FEFDC
:100B60008093AD0182E08093AA0108951F93CF93F3
:100B7000DF931091AE01C12FD0E0FE01E959FF4F84
:100B800060E08081FFD5CF59DF4F60E08881FAD5E2
:100B900081E090E0A0E0B0E004C0880F991FAA1F98
:100BA000BB1F1A95D2F780959091E30098239093FC
:100BB000E3009091D60098239093D6009091100175
:100BC000892380931001DF91CF911F9108950F9396
:100BD0001F93CF93DF9326E040E052EC61E070E09A
:100BE00080EC91E0B9D3C7E6D0E001E610E060E028
:100BF0008991C8D560E0F80181918F01C3D5F0E0FB
:100C0000CD36DF07A1F7DF91CF911F910F910895A6
:100C10002F923F924F925F926F927F928F929F920C
:100C2000AF92BF92CF92DF92EF92FF920F931F93FA
:100C3000CF93DF93CDB7DEB728970FB6F894DEBF1A
:100C40000FBECDBF1C0140969A83898360E012DC01
:100C5000FC0191E09083F101908BC10147969C8348
:100C60008B837E96FE83ED8382E0F101878B612C7E
:100C7000712C812C912C18861F82412C512C60E004
:100C80008B819C81F7DB21E0FC012083E8E2F0E02E
:100C9000A490B12CC12CD12CE12CF12C00E010E05F
:100CA0009301A40168857F81C20120D6AA24AA9459
:100CB0006DD6F901EA5DFE4FA49061E08B819C81C5
:100CC000D9DBFC01A0824D815E816B817C818981B1
:100CD0009A81DCDBF101868D1089181708F4182F32
:100CE000F101108B8D819E8178DB20E0412FBC01CA
:100CF00089819A818FDB9301A40168857F81C2017C
:100D0000A1E002D739014A0168877F832C01AAE05C
:100D100007D709F0B4CF28960FB6F894DEBF0FBE00
:100D2000CDBFDF91CF911F910F91FF90EF90DF909A
:100D3000CF90BF90AF909F908F907F906F905F907B
:100D40004F903F902F9008952F923F924F925F9235
:100D50006F927F928F929F92AF92BF92CF92DF92CB
:100D6000EF92FF920F931F93CF93DF93CDB7DEB730
:100D7000C753D1400FB6F894DEBF0FBECDBF8C0174
:100D80004B013A01CE010196D8018D939D936D01DF
:100D90007801B9E0EB0EF11C5801E0E1AE0EB11C98
:100DA000C6012DDBC7012BDB80918000882309F46D
:100DB0005FC020E04BE061E870E0C5012BDB20E084
:100DC0004AE0B401C60126DB20E04AE0B401C701D5
:100DD00021DBF8018281865F8187812C682DC70124
:100DE00049DBDC01CC90CC2009F452C0212C312C01
:100DF00021012394D12CF601EA5DFF4F6F01D80148
:100E000050968C9190E0B0E0A0E0281639064A0692
:100E10005B0608F03DC0C95CDE4F2882C753D14055
:100E2000622DC50127DBDC01EC91F0E0912C3097BD
:100E300069F0EA5DFF4F9490F6018491292D280F07
:100E40003327331FF901EA5DFE4F9490C95CDE4FF2
:100E50006881C753D140680DC7010CDBDC01EC9100
:100E60009E269C92BFEF2B1A3B0A4B0A5B0AC7CF08
:100E7000C801CEDEC501B1DAD80150964C9150E0E0
:100E8000BC0181E890E06ED681E08093800097CF2E
:100E90008394EAE08E12A2CFC7019FDAFC013A9652
:100EA0009AE0D30101900D929A95E1F7C95CDE4F6B
:100EB0000FB6F894DEBF0FBECDBFDF91CF911F916B
:100EC0000F91FF90EF90DF90CF90BF90AF909F90E9
:100ED0008F907F906F905F904F903F902F900895EC
:100EE000A3E1B1E0E1E1F1E01C9216961C921E92A2
:100EF0001597179681E0AA38B807B1F781E191E01C
:100F000010921401109217011092160124E12093FF
:100F1000150110921301909319018093180131E08B
:100F200030931B0144E150E050931E0140931D019A
:100F300020931C0110921A019093200180931F01AD
:100F400032E03093220148E250E050932501409373
:100F50002401209323011092210190932701809373
:100F6000260133E0309329014CE350E050932C01EB
:100F700040932B0120932A011092280190932E0177
:100F800080932D0134E03093300140E550E05093E0
:100F90003301409332012093310110922F0190933D
:100FA00035018093340135E03093370144E650E059
:100FB00050933A0140933901209338011092360141
:100FC00090933C0180933B0128E730E086E094E178
:100FD00041E151E085A730AB27A796A714A652ABF5
:100FE00041AB2C5E3F4F8F5F3796813199F7089563
:100FF000AF92BF92CF92DF92EF92FF920F931F9327
:10100000CF93DF9387E6A82E80E0B82E91E6C92E15
:1010100090E0D92E27EDE22E20E0F22E10E000E045
:10102000D4E08091E30090E0002E02C09595879572
:101030000A94E2F780FF37C0F50181915F010BD47C
:10104000C82FF60181916F0106D4CC0F8C2BF701CC
:1010500091917F01981709F131978083D093AA016C
:10106000F801E352FF4F90819093AC018093AD0162
:10107000802F62D39093AE018093AF01C0E0809146
:10108000AA01C81750F4EC2FF0E0E455FE4F608140
:1010900080EC91E016D1CF5FF2CF0F5F1F4F06308B
:1010A000110509F0BECFDF91CF911F910F91FF90F5
:1010B000EF90DF90CF90BF90AF900895CF93DF93E4
:1010C0008AE0ECEAF1E0AAE8B1E001900D928A959D
:1010D000E1F744E951E06CEA71E081E191E034DE4E
:1010E000CAE8D1E0699180EC91E0EBD081E0CE39A3
:1010F000D807C1F780EC91E0DF91CF91C3C0CF93C7
:10110000C0E080EC91E054D0892B99F080EC91E024
:1011100069D0E091AB0191E09E0F9093AB01F0E0BC
:10112000E455FE4F8083C1E0943159F71092AB0132
:10113000C1E061E070E080E090E0A4D280EC91E05A
:1011400037D0892BF1F61092AB0182E08093AA018F
:10115000CC2341F1C091AC018091AD018630A1F06A
:1011600078F48230C9F030F48130A1F0C093AC0142
:10117000CF91A4CF843091F08530C1F741DBF6CF19
:101180008B3020F4883060F0EADCF0CF8D3F71F7CF
:10119000EDDCECCFD7D9EACF6CDAE8CF71DAE6CF65
:1011A0006EDBE4CFCF910895AADF9EDA21DFABCBCF
:1011B000FC01918D228D892F90E0805C9F4F821BD6
:1011C00091098F7399270895FC01918D828D98174D
:1011D00031F0828DE80FF11D858D90E008958FEF3D
:1011E0009FEF0895FC01918D828D981761F0A28D7B
:1011F000AE0FBF2FB11D5D968C91928D9F5F9F7337
:10120000928F90E008958FEF9FEF0895FC01538D2A
:10121000448D252F30E0842F90E0821B930B5417D0
:1012200010F0CF960895019708958AE59AE0892BEA
:1012300039F080E090E0892B19F03CD18111E0C6B3
:101240000895FC01A48DA80FB92FB11DA35ABF4F5B
:101250002C91848D90E001968F739927848FA689B5
:10126000B7892C93A089B1898C9182748C93938DCA
:10127000848D981306C00288F389E02D80818F7DCC
:1012800080830895CF93DF93EC01888D8823B1F09C
:10129000AA89BB89E889F9898C9185FD03C0808181
:1012A00086FD0CC00FB607FCF7CF8C9185FFF2CFFF
:1012B000808185FFEDCFCE01C4DFEACFDF91CF91F2
:1012C0000895EF92FF920F931F93CF93DF93EC015A
:1012D00081E0888F9B8D8C8D981319C0E889F989DE
:1012E000808185FF14C09FB7F894EE89FF896083E1
:1012F000E889F9898081827480839FBF81E090E0D2
:10130000DF91CF911F910F91FF90EF900895F62EEE
:101310000B8D10E00F5F1F4F0F731127E02E8C8D88
:101320008E110BC00FB607FCFACFE889F9898081CE
:1013300085FFF5CFCE0185DFF2CFEB8DEC0FFD2FD2
:10134000F11DE35AFF4FF0829FB7F8940B8FEA89A3
:10135000FB8980818062D0CFCF92DF92EF92FF92A3
:101360001F93CF93DF93EC016A017B01122FE88971
:10137000F98982E08083C11481EED806E104F1048A
:1013800099F060E079E08DE390E0A70196018CD2BE
:1013900021503109410951095695479537952795AF
:1013A000211580E1380790F0E889F989108260E81A
:1013B00074E88EE190E0A701960176D221503109C0
:1013C000410951095695479537952795EC85FD8537
:1013D0003083EE85FF852083188E1068EC89FD89A7
:1013E0001083EA89FB89808188698083EA89FB8987
:1013F00080818F7D8083DF91CF911F91FF90EF904F
:10140000DF90CF9008951F920F920FB60F92112484
:101410002F938F939F93EF93FF93E091D001F091DF
:10142000D1018081E091D601F091D70182FD1BC0EE
:1014300090818091D9018F5F8F732091DA0182179B
:1014400041F0E091D901F0E0E054FE4F958F809398
:10145000D901FF91EF919F918F912F910F900FBE26
:101460000F901F9018958081F4CF1F920F920FB6A6
:101470000F9211242F933F934F935F936F937F931A
:101480008F939F93AF93BF93EF93FF9380EC91E083
:10149000D8DEFF91EF91BF91AF919F918F917F9196
:1014A0006F915F914F913F912F910F900FBE0F90D1
:1014B0001F90189580EC91E07BDE21E0892B09F4E8
:1014C00020E0822F0895E0ECF1E01382128288EE92
:1014D00093E0A0E0B0E084839583A683B78381E79F
:1014E00090E09183808380E490E09587848729E26F
:1014F00030E0378726872BE230E0318B208B2AE2E1
:1015000030E0338B228B958B848B8CE290E0978B31
:10151000868B118E128E138E148E0895AF92BF9209
:10152000CF92DF92EF92FF920F931F93CF93DF93AF
:101530006C017B018B01040F151FEB015E01AE18DE
:10154000BF08C017D10759F06991D601ED91FC9100
:101550000190F081E02DC6010995892B79F7C5012D
:10156000DF91CF911F910F91FF90EF90DF90CF907F
:10157000BF90AF9008950895C6D0FDDF28DBC5E188
:10158000D9E012DE2097E9F350DEFBCF1F920F92D5
:101590000FB60F9211242F933F938F939F93AF9386
:1015A000BF938091620290916302A0916402B09116
:1015B00065023091610223E0230F2D3768F126E8A0
:1015C000230F0296A11DB11D209361028093620238
:1015D00090936302A0936402B093650280915D02D0
:1015E00090915E02A0915F02B09160020196A11DF0
:1015F000B11D80935D0290935E02A0935F02B09351
:101600006002BF91AF919F918F913F912F910F9069
:101610000FBE0F901F9018950196A11DB11DD4CF3C
:101620002FB7F89460916202709163028091640216
:10163000909165022FBF08953FB7F89480915D02A5
:1016400090915E02A0915F02B091600222B708B64D
:1016500000FE05C02F3F19F00196A11DB11D3FBF2F
:10166000BA2FA92F982F8827BC01CD01620F711DB9
:10167000811D911D42E0660F771F881F991F4A95B3
:10168000D1F708958F929F92AF92BF92CF92DF923F
:10169000EF92FF926B017C01CFDF4B015C01C11423
:1016A000D104E104F104D9F0FED0C6DF681979094C
:1016B0008A099B09683E73408105910580F321E00A
:1016C000C21AD108E108F10888EE880E83E0981E5E
:1016D000A11CB11CC114D104E104F10431F7FF9045
:1016E000EF90DF90CF90BF90AF909F908F90089534
:1016F0008230910538F0880F991F880F991F059740
:101700000197F1F70895789483B7836083BF89B711
:10171000816089BF82E08EBD8EB581608EBD8FB540
:1017200081608FBD85B5846085BD85B5806485BDCC
:1017300087E886B91AB80895883020F08D3008F40B
:101740008DE08E502091600090E4299F900111243B
:101750008770822B87B9369A3699FECF84B195B1BE
:101760000895853041F0873049F0843051F48FB5C9
:101770008F778FBD08958FB58F7DFBCF85B58F7D1A
:1017800085BD0895CF93DF9390E0FC01E35CFC4FAF
:1017900024918C5A9C4FFC0184918823C9F090E0DD
:1017A000880F991FFC01E158FC4FA591B491FC01F1
:1017B000EB58FC4FC591D49161110DC09FB7F894BF
:1017C0008C91209582238C938881282328839FBF26
:1017D000DF91CF910895623051F49FB7F8943C9116
:1017E000822F809583238C93E8812E2BEFCF8FB7A8
:1017F000F894EC912E2B2C938FBFEACF1F93CF93AD
:10180000DF93282F30E0F901EA5DFC4F8491F90164
:10181000E35CFC4FD491F901EC5AFC4FC491CC230A
:10182000A1F0162F81119DDFEC2FF0E0EE0FFF1FCE
:10183000EB58FC4FA591B4918FB7F894EC9111112E
:1018400008C0D095DE23DC938FBFDF91CF911F912D
:101850000895DE2BF8CFCF93DF93282F30E0F901E6
:10186000EA5DFC4F8491F901E35CFC4FD491F901EE
:10187000EC5AFC4FC491CC2399F0811172DFEC2F0C
:10188000F0E0EE0FFF1FE559FC4FA591B491EC91EC
:10189000ED2381E090E009F480E0DF91CF9108959D
:1018A00080E090E0FACF0895A1E21A2EAA1BBB1B9C
:1018B000FD010DC0AA1FBB1FEE1FFF1FA217B3071C
:1018C000E407F50720F0A21BB30BE40BF50B661F32
:1018D000771F881F991F1A9469F7609570958095F6
:1018E00090959B01AC01BD01CF010895DF93CF938B
:1018F0001F930F939A9DF02D219FF00D8B9DF00D5E
:101900008A9DE02DF10D039FF00D029FE00DF11D6A
:101910004E9DE00DF11D5E9DF00D4F9DF00D7F93EE
:101920006F93BF92AF925F934F93D5010BD18B0111
:10193000AC01D70107D1EB01E80FF91FD6011ED08A
:101940002F913F91D601FED0C60FD71FE81FF91F78
:10195000AF91BF9113D02F913F91F4D0C60FD71FF5
:10196000E81FF91FD601EED0E60FF71F9801BE0160
:10197000CF010F911F91CF91DF910895E3D0460FD2
:10198000571FC81FD91F08F431960895689401C0E5
:10199000E894F92FF12B0AF027C0A0E0B0E0E2EDC7
:1019A000FCE081C0092E05941AF467D0112392F44B
:1019B000F0E80F26FFEFE094F09400951095B094B6
:1019C000C094D094A194BF0ACF0ADF0AEF0AFF0A9D
:1019D0000F0B1F0B13D007FC50D0CDB7DEB7ECE0D8
:1019E0007EC0689401C0E8948F929F92CF93DF935A
:1019F00005D0DF91CF919F908F90089588249924EE
:101A0000F401E401B0E41B2ED4019D158E049F0463
:101A1000E007F10738F4FC014B01CA01B901AD013F
:101A20009E011694220F331F441F551F661F771FF8
:101A3000881F991F881C991CEE1FFF1FCC1FDD1FDC
:101A4000AA1FBB1F8A149B04EC05FD05CE05DF050C
:101A5000A007B10748F08A189B08EC09FD09CE09D8
:101A6000DF09A00BB10B21601A94E1F62EF494016A
:101A7000AF01BE01CD01000C089560957095809571
:101A8000909530954095509521953F4F4F4F5F4F22
:101A90006F4F7F4F8F4F9F4F08952F923F924F92DE
:101AA0005F926F927F928F929F92AF92BF92CF92EE
:101AB000DF92EF92FF920F931F93CF93DF93CDB7F7
:101AC000DEB7CA1BDB0B0FB6F894DEBF0FBECDBF6F
:101AD00009942A88398848885F846E847D848C8440
:101AE0009B84AA84B984C884DF80EE80FD800C8149
:101AF0001B81AA81B981CE0FD11D0FB6F894DEBF2C
:101B00000FBECDBFED0108950024A7FD00942A0F5C
:101B1000301D401D501D601D701D801D901D0895BD
:101B20000024A7FD00942A173005400550056005E4
:101B30007005800590050895EE0FFF1F0590F49144
:101B4000E02D0994A29FB001B39FC001A39F01D0D3
:101B5000B29F700D811D1124911D089581E090E0C8
:101B6000F89410C0FB01DC0102C001900D924150BD
:101B70005040D8F70895DC0101C06D9341505040AA
:081B8000E0F70895F894FFCF8F
:101B880001040302080706131211100F0E000000CB
:101B98000061098E0A06094209D808F208E408001B
:00000001FF
